:020000040800F2
:100000009814002045010008E1320008272D00085F
:1000100091320008FD070008013C000800000000C4
:10002000000000000000000000000000093500088A
:100030004308000800000000E332000851350008C2
:100040005F0100085F0100085F0100082934000813
:100050005F0100085F010008450800085F01000813
:100060005F0100085F0100084B0800080108000854
:100070005F0100085F0100085F0100085F010008E0
:100080005F0100085F0100085F0100085F010008D0
:100090005F0100085F0100085F0100085F010008C0
:1000A0005F0100085F0100085F0100085F010008B0
:1000B0005F0100085F0100084D3600085F0100087D
:1000C0005F0100085F0100085F0100085F01000890
:1000D0005F010008653B00085F0100085F01000840
:1000E0005F0100085F0100085F0100085F01000870
:1000F0005F0100085F0100085F0100085F01000860
:100100005F0100085F0100085F0100085F0100084F
:100110005F0100085F0100085F0100085F0100083F
:100120005F0100085F0100085F0100080D0800087A
:10013000DFF80CD000F0B8FA004800478545000809
:10014000981400200648804706480047FEE7FEE76F
:10015000FEE7FEE7FEE7FEE7FEE7FEE7FEE7FEE777
:100160000536000831010008202A04DB203A21FA74
:1001700002F00021704721FA02F3D040C2F12002C0
:100180009140084319467047D2B201E000F8012BB4
:10019000491EFBD270470022F6E710B513460A4607
:1001A00004461946FFF7F0FF204610BD2DE9FE4F2B
:1001B000804681EA0300C00F0C46009021F0004108
:1001C00023F00045B8EB0200A94105D24046214684
:1001D00090461C460B46024623F00040104347D091
:1001E000270DC7F30A00C3F30A510290401A019089
:1001F00040286BDAC3F3130040F4801B009892464A
:1002000020B10023D2EB030A63EB0B0B0198594694
:10021000C0F14002504600F098F906460D4650469F
:100220005946019A00F0A0F910EB08006141002442
:1002300087EA115284EAE7731A4340D0009A62B306
:10024000019A012A4FEA075215DC001B61EB0201FB
:100250004FF0004202EA0752CDE90042001C41F58E
:10026000801132462B4600F0A0F903B0BDE8F08FB4
:1002700040462146F9E7001B61EB0201001C41F5F5
:10028000801300185B412018A2F5001747EB03010B
:1002900040EAD570B6196D4111E06D084FEA360697
:1002A00045EAC0754FEA0752001B61EB0201001CD2
:1002B00041F5801149084FEA30000019514132469A
:1002C0002B4603B0BDE8F04F00F060B90098012262
:1002D00040000023D0EB020263EBE073009821465C
:1002E0004FEAE074B8EB000061EB0401E9E783F04A
:1002F00000435BE781F0004158E72DE9FE4F81EABA
:10030000030404F0004421F0004100944FF0000B7E
:1003100023F0004350EA01045ED052EA03045BD0AC
:10032000C3F30A54C1F30A552C44A4F2F3340194E4
:10033000A0FB0254C1F3130141F48011C3F3130372
:1003400043F4801301FB024400FB034E840A970A26
:1003500044EA815447EA8357A4FB076802958D0A53
:1003600005FB07854FEA932C04FB0C542705029DDF
:100370004FEA065847EA1637B5EB08056EEB070C4F
:10038000870E920E47EA811742EA8312A7FB020109
:10039000B6EB0B0164EB00042B0D43EA0C335E1843
:1003A00044EB1C50DA465146E7FB0201C5F3130447
:1003B0004FEA0B3343EA14534FEA0432019C43EAF9
:1003C0000603A4F10C040294009CCDE900B400F0F3
:1003D000ECF803B0BDE8F08F00200146F9E72DE905
:1003E000F04D81EA030404F0004B21F0004514466F
:1003F0004FF0000A23F0004150EA050220D054EAF1
:1004000001021DD0C5F30A570246C5F31303C1F319
:100410001300C1F30A5640F4801543F48013A7EB90
:100420000608101BD64608F2FD3873EB050002D310
:1004300008F1010801E092185B41B8F1000F03DAFE
:1004400000200146BDE8F08D00204FF480110646E3
:1004500084460EE0171B73EB050705D3121B63EBF5
:10046000050306434CEA010C49084FEA3000921894
:100470005B4150EA0107EDD152EA030012D082EA53
:10048000040083EA0501084305D0101BAB4106D2E6
:100490000122002306E000224FF0004302E06FF04B
:1004A000010253101AEB06004CEB085110EB0A0046
:1004B00041EB0B01BDE8F04D00F068B830B50B46DC
:1004C000014600202022012409E021FA02F59D4284
:1004D00005D303FA02F5491B04FA02F52844151E58
:1004E000A2F10102F1DC30BD2DE9F05F05460020EC
:1004F00092469B4688460646814640241BE0284695
:10050000414647462246FFF72FFE53465A46C01A39
:10051000914110D311461846224600F016F82D1AC4
:1005200067EB01084F4622460120002100F00DF83C
:1005300017EB00094E41201EA4F10104DFDC484600
:1005400031462A464346BDE8F09F202A04DB203A84
:1005500000FA02F1002070479140C2F1200320FA16
:1005600003F3194390407047202A06DBCB17203A4B
:1005700041FA02F043EAE07306E041FA02F3D040A8
:10058000C2F12002914008431946704710B5141E6D
:1005900073F1000408DA401C41F1000192185B413C
:1005A0001A4301D120F0010010BD2DE9F04D924613
:1005B0009B4611B1B1FA81F202E0B0FA80F220322A
:1005C0009046FFF7C2FF04460F4640EA0A0041EAA0
:1005D0000B0153465A46084313D0114653EA010013
:1005E00019D0C8F140025046FFF7BEFD05460E4641
:1005F000504659464246FFF7A8FF084305D0012060
:1006000004E020463946BDE8F08D0020054346EA67
:10061000E0762C4337430A986305E40AA0EB080010
:100620000022FD0A44EA47540A3002D50020014660
:10063000E9E7010510196941DDE90845001969413B
:10064000BDE8F04DA2E7C1F30A52C1F3130140F235
:10065000FF3341F480119A4202DA002001467047CC
:1006600040F233439A42A2F2334202DC5242FFF795
:100670007BBDFFF76ABF000030B5041E71F10004B6
:1006800004DB4FF00044404264EB0101141E73F19F
:10069000000405DB1C464FF00043524263EB0403A9
:1006A000994208BF904230BD064C074D06E0E06815
:1006B00040F0010394E8070098471034AC42F6D3A9
:1006C000FFF73AFDC0460008E046000870B5044652
:1006D00000688168C943C9071CD1816821F0010104
:1006E000816000F0F3FE05460FE000BF00F0EEFE73
:1006F000401B022809D9A06A40F01000A062E06AFD
:1007000040F00100E062012070BD20688068C043B5
:10071000C007EBD0002070BD10B50146406A826A68
:1007200012F0500F05D0006A026BBDE81040084679
:100730001047816A41F40071816201688968C1F3E0
:10074000424107290CD1017B51B9816A21F48071A2
:100750008162816AC90403D4816A41F00101816226
:1007600000F040F910BD10B5406A816A41F04001C7
:100770008162C16A41F00401C16200F035F910BD27
:1007800010B5406A00F02FF910BD0000F8B5002642
:100790000446009600688168C943C90728D081686B
:1007A00041F001018160134813490068B0FBF1F08A
:1007B00000E0401E00900028FBD100F087FE0546B7
:1007C00011E000BF00F082FE401B02280BD9A06A96
:1007D00040F01000A062E06A40F00100E06284F89E
:1007E00024600120F8BD20688068C043C007E9D1BB
:1007F0000020F8BD0C00002040420F00FEE7000082
:10080000014800F08BBB000088000020014800F088
:1008100085BB0000CC00002030B590F8405001248A
:10082000AC40C56B6C60046863604368102B036860
:1008300003D099600068C26030BD9A600068C160F2
:1008400030BD7047012000F027BD102000F024BD0E
:10085000704700002DE9F04180461E4614460D46C3
:10086000980003F0E7FE074601463246404600F096
:10087000B3F9002012E000210BE000BF57F8203050
:1008800055F82120401C1A4445F82120491C80B20B
:1008900089B2A142F2D3001B204480B2B042EAD315
:1008A000002009E0B6FBF4F155F82020B2FBF1F18D
:1008B00045F82010401C80B2A042F3D33846BDE872
:1008C000F04103F037BE000010B50022044905488E
:1008D00001F061FBBDE81040014802F0B9BC000026
:1008E0001400002078010020F8B50024009490F84E
:1008F00024202546012A12D0012280F824204A68AB
:100900001F23072A0DD20668776B521E02EB820264
:1009100093409F430B6893401F43776319E0022085
:10092000F8BD06680D2A0AD2376BD21F02EB82028D
:1009300093409F430B6893401F43376309E0F76A76
:100940000D3A02EB820293409F430B6893401F4392
:10095000F7620A68072306680A2A0AD3F7680A3A80
:1009600002EB420293409F438B6893401F43F76022
:1009700008E0376902EB420293409F438B68934043
:100980001F4337610A68102A01D0112A20D1124B67
:1009900002689A4217D193681B0219D4936843F4F2
:1009A000000393600968102912D10C490C4A0968A8
:1009B000B1FBF2F101EB8101490000E0491E009119
:1009C0000029FBD104E0816A41F020018162012409
:1009D00080F824502046F8BD002401400C0000207F
:1009E00040420F0070477047704700002DE9F0410A
:1009F00004004FF000057FD0A06A002628B9E66207
:100A000084F82460204600F081F82046FFF75EFE5F
:100A1000A16AC90600D420B1A06A40F01000A0620B
:100A20006AE0A16A21F4885141F00201A1623349D0
:100A300023688B42E16904D1B1F5402F01D14FF415
:100A40000021277B4FF4807C41EA470261680A431A
:100A5000A168614508D0012906D0002194F814E06E
:100A6000BEF1010F02D00AE06146F7E7C7B1A76AFD
:100A700047F02007A762E76A47F00107E7625F686F
:100A800027F469470F435F60236899681C4F39401A
:100A900011439960A16861450BD0012909D00CE090
:100AA000DFF860E0A7690EEB47370F4347F40061BA
:100AB000E5E7218A0D05A5F580152168CB6A23F4A9
:100AC00070032B43CB62216889680F4B1940914218
:100AD00008D1E662A16A21F0020141F00101A162A0
:100AE000BDE8F081A06A20F0020040F01000A06292
:100AF000E06A40F00100E0620120F1E7003C0140C3
:100B0000FDF7E1FF00E0FFFFFE0E1FFF2DE9F047BC
:100B100086B000250095019502950395064601686B
:100B20002748264A87154FF080084FF480694FF018
:100B3000200A914214D1816941F400718161806978
:100B4000214C00F4007004901E48C4E90005C4E97B
:100B50000258204626E03462666206B0BDE8F0879F
:100B60001A4A9142F9D1816941F400418161816958
:100B700001F400410491816941F080018161806943
:100B8000694600F0800004900320CDE90070104811
:100B900000F08EFB0C4C0F484434C4E90005C4E956
:100BA00002582046C4E906A5C4E9047900F0DAFA3F
:100BB0000028D0D0FFF74CFECDE700000024014014
:100BC000001002400800024088000020003C014064
:100BD000001C0140580402402DE9F04789460446B4
:100BE0003B4900683B4F0E1D9046884201D0B842F9
:100BF00007D1306810F4702F03D001252846BDE8D6
:100C0000F08794F8240001280CD0012084F82400F7
:100C10002046FFF7BBFD05004FF0000004D084F82C
:100C20002400EBE70220EAE7A16A40F60162914363
:100C300041F48071A1622168B94218D1326812F47E
:100C4000702F14D0A16A41F48011A1623168490566
:100C500005D5A16A21F4005141F48051A162A16A35
:100C6000C9040AD5E16A21F00601E16206E0A26A40
:100C700022F48012A2624968E9E7E06284F8240065
:100C8000216A15488862216A1448C862216A14489A
:100C9000086321686FF0020008602068816841F4F1
:100CA00080718160216843464A464C31206A00F0D9
:100CB00097FA20688168C1F342410729816803D00F
:100CC00041F48011816099E741F4A001FAE7000046
:100CD000002401400028014019070008810700088E
:100CE0006707000870B54379012B15D001244471C2
:100CF0000223037103681D6801F010014FF47C6644
:100D00008E4042F08002B5438A4015431D60047155
:100D100000214171084670BD022070BD70B5437955
:100D2000012B20D001254571022303710668346828
:100D300002F0100340F6FE729A409443D1E900217C
:100D40000A439A402243326002681468C0219940E5
:100D50008C431460026813688B4313600571002193
:100D60004171084670BD022070BD70B5040003D00B
:100D70002079002510B105E0012070BD6571204685
:100D800000F008F802202071256101202071002068
:100D900070BD000000B585B0002100910191029165
:100DA000039100680E49884218D10E48C16941F08C
:100DB0000051C161C16901F000510491816941F0A4
:100DC000040181618069694600F0040004903020CC
:100DD000009003200190044800F06AFA05B000BDBD
:100DE0000074004000100240000801402DE9F05F4F
:100DF00090F821100024022903D0042181630124EA
:100E000085E001680A6822F00E020A6001680A683B
:100E100022F001020A603F4E3E4FB215DFF8F4C0E7
:100E2000DFF8F090DFF8ECA0DFF8E8B0DFF8E4E0FE
:100E30000168783F13011502ACF1640CA9F1500967
:100E4000AAF13C0AABF1280BAEF1140E4FF4801856
:100E5000B14227D9B9420ED0614512D049451DD0C3
:100E6000514518D0594518D0714501D1424615E079
:100E7000294EB14201D1012210E0274E1436B14271
:100E800001D110220AE0244E2836B14206D0224A6F
:100E90003C32914201D11A4600E02A461E49091F00
:100EA0000A602BE0B94213D0614517D0494522D0E2
:100EB00051451DD059451DD0714501D142461AE01A
:100EC000B14202D14FF0807215E0134EB14201D110
:100ED000012210E0104E1436B14201D110220AE076
:100EE0000D4E2836B14206D00B4A3C32914201D118
:100EF0001A4600E02A46074980394A60012180F8F5
:100F00002110002180F82010416B01B18847204654
:100F1000BDE8F09F80000240080402402DE9F05F28
:100F2000C16B0A6801680B68046C4FF0040808FA8A
:100F300004F8844D844E854FDFF814C2DFF8149214
:100F4000DFF814A2DFF814B2DFF814E218EA020F97
:100F500065D05FEA437862D50A68920603D40A68CE
:100F600022F004020A60DFF8F0814FF48062016829
:100F700008F1140813011402414524D9A9420DD0E7
:100F8000B1420FD0B9421AD0614515D0494515D0AC
:100F9000514501D1120312E0594501D104220EE05E
:100FA000714501D140220AE06D4D1435A94206D0A9
:100FB0006B4A2832914201D11A4600E02246674925
:100FC000091F0A6029E0A94213D0B14215D0B942E5
:100FD00020D061451BD049451BD0514502D14FF46B
:100FE000800217E0414502D14FF0806212E059457E
:100FF00001D104220EE0714501D140220AE0584D92
:101000001435A94206D0564A2832914201D11A46D7
:1010100000E022464B4908394A60C16A71E04FF04E
:10102000020808FA04F818EA020F70D05FEA837821
:101030006DD50A68920606D40A6822F00A020A6090
:10104000012180F82110DFF810814FF4007201684F
:1010500008F1140813011402414524D9A9420DD006
:10106000B1420FD0B9421AD0614515D0494515D0CB
:10107000514501D1120312E0594501D102220EE07F
:10108000714501D120220AE0354D1435A94206D020
:10109000334A2832914201D11A4600E022462F49B4
:1010A000091F0A6029E0A94213D0B14215D0B94204
:1010B00020D061451BD049451BD0514502D14FF48A
:1010C000001217E0414502D14FF0007212E059457D
:1010D00001D102220EE0714501D120220AE0204D0B
:1010E0001435A94206D01E4A2832914201D11A462F
:1010F00000E02246134908394A60002180F8201098
:10110000816A00291CD0BDE8F05F0847FFE7082589
:10111000A540154214D01A0712D50A6822F00E0213
:101120000A6090F84020C36B012101FA02F25A6074
:10113000816380F82110002180F82010016BE0E726
:10114000BDE8F09F080002401C0002403000024051
:1011500044000240580002406C0002400804024073
:101160001C04024030B560B11A4B026814219A4247
:1011700009D2194B1344B3FBF1F1890001641749FB
:101180000AE0012030BD134B5B421344B3FBF1F185
:10119000890001640F490839C163022180F82110D8
:1011A000136843F6F0718B43F0E901142143D0E951
:1011B00002452C4321430469214344692143846946
:1011C00021431943116000214163012242770177D5
:1011D000084630BD08040240F8FFFDBF0000024091
:1011E00070B5044690F82000002501280CD001209D
:1011F00084F8200094F821600020012E06D084F8A5
:1012000020000225284670BD022070BD022684F809
:101210002160A0632068066826F00106066020466B
:10122000FFF7FAFAE06A00282068016802D041F06E
:101230000E0106E021F0040101602068016841F020
:101240000A0101602068016841F001010160D9E7ED
:10125000064810B54FF0FF31C16000220261C16045
:10126000C26000F05BFA002010BD000000100240D8
:1012700070B5044600F02AF90546601C02D0044807
:101280000078044400F022F9401BA042FAD370BD5C
:101290000000002070470000044910B50A680242AF
:1012A00002D00860FFF7F6FF10BD000014040140F3
:1012B0002DE9F84FDFF8C891002409F1040A0AF17A
:1012C000040B23460F270BF1040ED1E00125A540A6
:1012D00006EA0502AA4276D1DFF8A8C14E68A6EB5D
:1012E0000C0866452BD00DDC032E34D005DC36B35C
:1012F000012E19D0022E2FD11BE0112E16D0122E46
:101300002AD119E0B8F5881F19D006DCB8F5803F5E
:1013100015D0B8F5801F1FD111E0B8F5001F0ED011
:10132000B8F5041F18D10AE0CB6815E0CB681B1D87
:1013300012E0CB6808330FE0CB680C330CE08B680D
:101340002BB1012B4FF0080303D0456104E00423C7
:1013500002E0056100E00023FF2A01D8064601E013
:1013600000F104064FEA840501D9A5F12005D6F85D
:10137000008007FA05FC28EA0C0803FA05F548EA9C
:101380000508C6F800804D68ED0070D53E4DAE6989
:1013900046F00106AE61AD6924F0030605F00105D3
:1013A00000953A4D06EB050CDCF80850A607360F01
:1013B00007FA06F825EA0805DFF8D480404503D18E
:1013C0004FF0000825E052E0DFF8C880404502D128
:1013D0004FF001081DE0DFF8C080404502D14FF01A
:1013E000020816E0DFF8B480404502D14FF0030850
:1013F0000FE0DFF8AC80404502D14FF0040808E070
:10140000DFF8A080404502D14FF0050801E04FF021
:10141000060808FA06F848EA0508CCF808804D687E
:10142000D9F80060ED034D4601D5164300E0964320
:101430002E604D68DAF80060AD03554601D51643BD
:1014400000E096432E604D68DBF80060ED025D46DB
:1014500001D5164300E096432E604D68DEF800602B
:10146000AD02754601D5164300E096432E60641C1C
:101470000A681646E2407FF429AFBDE8F88F000005
:101480000004014000001110001002400000014063
:1014900000080140000C0140001001400014014010
:1014A00000180140001C01408068084000D0012065
:1014B0007047C2680A4201D04161704701617047BC
:1014C0000AB1016170470904FBE700000148806828
:1014D000704700000000002070B504001BD094F895
:1014E0003D00002520B984F83C50204600F0AEF8BD
:1014F000242084F83D002068016821F0010101608A
:1015000000F014FB4D4A6168914201D84C4900E05B
:101510004C49884201D2012070BD4B492368B0FB81
:10152000F1F15E6826F03F060E435E606368934209
:1015300006D94FF4967359434FF47A73B1FBF3F124
:101540002368491C1E6A26F03F0631431962616810
:10155000914210D84900401EB0FBF1F2521CC2F378
:101560000B02042A01D2042022E0B0FBF1F0401C5F
:10157000C0F30B001CE0A368F3B301EBC10202EB64
:101580000116421EB2FBF6F2521C42F480421205D2
:1015900049D093B301EBC10202EB0111401EB0FB35
:1015A000F1F0401CC0F30B0040F4804040F40040D8
:1015B0002168CA694CF6FF739A431043C861D4E9A5
:1015C0000701084321680A6822F0C002104308603E
:1015D000D4E9030101432068826848F2FF339A434B
:1015E00011438160D4E9050108432168CA6822F0EB
:1015F000FF021043C86001E00EE016E020680168B9
:1016000041F0010101602564202084F83D0025633C
:1016100084F83E50002070BD01EB4106421EB2FB33
:10162000F6F2521CB3E70120C2E701EB4101401E74
:10163000B0FBF1F0401CC0F30B00B7E7A08601003F
:1016400080841E0000093D0040420F0010B586B0A6
:101650000021009101910291039100680F49884295
:101660001AD10F4CA06940F00800A061A06969463A
:1016700000F008000490C020009012200190032088
:1016800003900848FFF714FEE06940F40010E061A1
:10169000E06900F40010049006B010BD0054004052
:1016A00000100240000C0140024881680278114499
:1016B0008160704700000020074810B5016841F0C4
:1016C00010010160032000F077F8002000F006F818
:1016D00000F026F8002010BD0020024070B50D4D2E
:1016E00004464FF47A712878B1FBF0F00A49096892
:1016F000B1FBF0F000F0E4FE48B9102C07D2002254
:101700002146501E00F038F800206C6070BD0120AA
:1017100070BD0000000000200C0000207047000099
:101720000C4808B5816941F001018161816901F0CE
:1017300001010091C16941F08051C161C06900F0AF
:10174000805000900448416821F0E06141F0007150
:10175000416008BD0010024000000140002809DB84
:1017600000F01F02012191404009800000F1E020BB
:10177000C0F8001170470000F0B40E4B1B680C4617
:10178000C3F30223C3F10705042D00D90425191D55
:10179000072901D2002300E0DB1E012606FA05F12D
:1017A000491E214099409E40761E16403143F0BCB0
:1017B00002F038BA0CED00E0064900F007020868B4
:1017C0004FF6FF03184040EA0220034A1043086026
:1017D000704700000CED00E00000FA0590FAA0F060
:1017E000044AB0FA80F002EB80000021C0F88010BB
:1017F0007047000000000E42014901200862704756
:1018000000000E4290FAA0F0044AB0FA80F002EB19
:1018100080000121C0F880107047000000000E42D7
:101820000548016841F0020101600448016841F087
:101830000401016030BF70470070004010ED00E00F
:1018400010B52CA401461DCC86B08DE81D002DA03E
:101850002D4C00680490002004292FD00BDC0129B6
:101860002FD0022928D100F071F96168C1F38131CC
:10187000491C49001EE0082920D010291CD16168AC
:101880002268D20118D5C1F38342C9031DF80200B2
:1018900009D5616804AAC1F34041515C1B4AB2FBFF
:1018A000F1F1484301E01A4948436168490203D411
:1018B00040000321B0FBF1F006B010BD00F056F976
:1018C000FAE7226AC2F30121012903D1920701D567
:1018D000C803F1E7022905D1626A920702D549F6E9
:1018E0004040E9E70329E7D121688903E4D54FF2B5
:1018F0002440E1E702030405060708090A0B0C0D62
:101900000E0F1010010200000010024000127A00B9
:1019100000093D002DE9F84305460078354CC00725
:1019200054D0E0690026C00008D4E06940F080503F
:10193000E061E069012600F0805000902E480168C7
:10194000C90512D40168804641F480710160FFF737
:10195000BDFD074605E000BFFFF7B8FDC01B6428CA
:1019600023D8D8F80000C005F6D5206A10F44070DE
:1019700021D0A98801F4407181421CD0206A1F49FE
:10198000012220F440700A6000220A602062C00731
:1019900011D0FFF79BFD074641F2883808E000BFF1
:1019A000FFF794FDC11B414502D90320BDE8F88330
:1019B000206A8007F4D5206A696820F440700843E3
:1019C00020621EB1E06920F08050E0612878800735
:1019D00005D56068A96820F4404008436060287815
:1019E000C00605D56068696920F48000084360601E
:1019F0000020DBE70010024000700040400442423B
:101A00002DE9F0470F46050061D0434E306800F0E5
:101A10000700B84209D2306820F007003843306030
:101A2000306800F00700B84251D128683B4C81076C
:101A300012D5400703D5606840F4E0606060287804
:101A4000000703D5606840F4605060606068A96872
:101A500020F0F000084360602878C00728D068684C
:101A6000012810D02168022810D0890700292EDA19
:101A7000616821F0030101436160FFF727FD8046A3
:101A800041F288390DE021688903EFE78901EDE72C
:101A9000FFF71CFDA0EB0801494502D90320BDE872
:101AA000F0876068696800F00C00B0EB810FEFD13F
:101AB000306800F00700B8420BD9306820F007000A
:101AC00038433060306800F00700B84201D0012090
:101AD000E5E72878400705D56068E96820F4E0600C
:101AE000084360602878000706D56068296920F4FB
:101AF000605040EAC100606000F038F86168084A50
:101B0000C1F30311515CC8400649086006480068EB
:101B1000FFF7E4FD0020C2E7002002400010024071
:101B2000A04600080C0000200400002004480549DD
:101B300000684968044AC1F30221515CC8407047FB
:101B40000C00002000100240B0460008044805497F
:101B500000684968044AC1F3C221515CC84070471B
:101B60000C00002000100240B046000812A185B011
:101B70000FC98DE80F0014A0144A00680490516842
:101B8000134801F00C03042B10D0082B0ED1C1F325
:101B90008343C9031DF803000AD5516804AAC1F3A1
:101BA0004041515C0A4A5043B0FBF1F005B0704728
:101BB00008494843FAE7000002030405060708093C
:101BC0000A0B0C0D0E0F1010010200000010024055
:101BD00000127A0000093D002DE9F84F040070D092
:101BE0002078C04DC00749D06868C0F38100012843
:101BF00007D06868C0F38100022809D16868C00373
:101C000006D52868800339D560680028E7D035E01C
:101C10006068B0F5803F0BD010B1B0F5A02F11D0A7
:101C2000286820F480302860286820F4802002E0B2
:101C3000286840F480302860606890B1FFF746FC67
:101C400006460AE0286840F480202860F0E700BFDC
:101C5000FFF73CFC801B642873D828688003F7D505
:101C60000CE0FFF733FC064605E000BFFFF72EFC53
:101C7000801B6428F0D828688003F7D420789A4E17
:101C800080074FF001094FF0000839D5686810F05F
:101C90000C0F07D06868C0F38100022809D168687A
:101CA000C00306D42868800714D52069012808D10C
:101CB00010E02069B0B1C6F80090FFF707FC0746B6
:101CC00005E00AE1FFF702FCC01B0228C4D828681F
:101CD0008007F7D52868616920F0F80040EAC10064
:101CE00028600DE0C6F80080FFF7F0FB074604E02F
:101CF000FFF7ECFBC01B022823D828688007F7D425
:101D0000207800072CD57948A169D9B1C0F8009096
:101D1000FFF7DCFB074604E0FFF7D8FBC01B0228F7
:101D20000FD8686A8007F7D571484FF4FA510068F8
:101D3000B0FBF1F0009000BF0098411E0091FAD274
:101D40000EE080E0C0F80080FFF7C0FB074604E02B
:101D5000FFF7BCFBC01B022875D8686A8007F7D460
:101D60002078400760D5E8690027C00008D4E869FA
:101D700040F08050E861E869012700F08050009051
:101D80005C480168C90513D40168834641F4807139
:101D90000160FFF79BFB824606E000BFFFF796FB62
:101DA000A0EB0A0064284ED8DBF80000C005F5D58A
:101DB000E06801280AD008B1052813D0286A20F06D
:101DC00001002862286A20F0040002E0286A40F03E
:101DD00001002862E06841F2883B98B1FFF776FB8A
:101DE00082460BE0286A40F004002862EEE700BF5C
:101DF000FFF76CFBA0EB0A0159455AD8286A800707
:101E0000F6D50CE0FFF762FB824605E0FFF75EFBCC
:101E1000A0EB0A0159454CD8286A8007F6D41FB1B7
:101E2000E86920F08050E861E06988B36968C1F32F
:101E30008101022944D00228C6F8608004D0FFF74F
:101E400045FB044638E034E0FFF740FB074604E07A
:101E5000FFF73CFBC01B02282BD828688001F7D471
:101E6000206AB0F5803F05D16868A16820F4003091
:101E700008436860D4E908010843696821F47411D3
:101E800008436860C6F86090FFF720FB044606E050
:101E900025E000BFFFF71AFB001B022809D82868BD
:101EA0008001F7D51BE000BFFFF710FB001B0228E5
:101EB00002D90320BDE8F88F28688001F4D40EE031
:101EC0000128F7D06868226A00F48031914204D179
:101ED000616A00F47010884201D00120EAE7002016
:101EE000E8E7000000100240000042428004424245
:101EF0000C00002000700040024850F8210080B221
:101F000070470000006C0040024800EB810091B275
:101F100001607047006C004000680349884201D1AD
:101F2000FEF7D2BC7047000000280040704710B593
:101F3000044600680168C90716D04168C90713D074
:101F400040684007204607D5FFF7F0FF21686FF093
:101F500004004860042002E0FFF7DEFF0120607407
:101F600021686FF00100486010BD80B1017C01293B
:101F70000FD001210174022242740268136843F0F9
:101F80000103136041740021017408467047012069
:101F9000704702207047F8B505004FF00000164664
:101FA0000C46009006D02CB100226946284600F06D
:101FB00019F808B10120F8BD287B2070E87BE0709B
:101FC000697B6170A97BA17056B101F094F9E07052
:101FD000607801F090F96070A07801F08CF9A07041
:101FE0000020F8BD2DE9F04791460C465FEA000855
:101FF0004AD084B3D8F800004068400744D4404633
:1020000001F01FFA4FF461620546B0FBF2F1B0FB3C
:10201000F2F302FB13503C23B0FBF3F0B5FBF2F6F6
:10202000607002FB1650B0FBF3F203FB1200A070CD
:10203000182931D31820B1FBF0F7B1FBF0F200FB07
:1020400012102070404601F0F5F9411C04D0A8425E
:1020500002D9461B02E017E04FF0FF36A7EB07104E
:1020600000EB4000C0EB001005EBC01529464046D0
:1020700001F036FA40B9701C01D0711900E0314608
:10208000404601F019FA10B10120BDE8F087394649
:10209000404601F03BF900E02170B9F1000F0BD090
:1020A000207801F028F92070607801F024F9607040
:1020B000A07801F020F9A0700020E6E770B50400D8
:1020C00003D0607C002610B105E0012070BD2674AD
:1020D000204600F043F802206074204600F08EF99C
:1020E000042578BB204601F068F958BB2068416898
:1020F00021F007014160A06820B11748016821F074
:10210000010101601448001F0168A26821F4607198
:10211000114301606068411C04D10120FFF790FB6E
:1021200080B1401E21688A6822F00F0242EA104204
:102130008A602168CA6860F30F02CA60204601F015
:1021400057F908B16574C0E7E67301206073A073A6
:102150006074002070BD0000306C004008B500685D
:102160000D49884217D1FFF747FB0C48C16941F080
:102170000061C161C0690A4900F00060009001205F
:102180000860002211460320FFF7F6FABDE8084078
:102190000320FFF7E3BA08BD00280040001002400A
:1021A0003C0442422DE9F8434FF0000617460D4625
:1021B000040000960FD075B1207C01280ED04FF09E
:1021C000010984F8109002206074002269462046BC
:1021D000FFF708FF20B10120BDE8F8830220FBE7EC
:1021E0009DF800004FF4616148439DF80110C1EB78
:1021F000011100EB81009DF8021000EB0108287826
:10220000E7B101F06FF84FF4616100FB01F7687806
:1022100001F068F8C0EB001007EB8007A87801F028
:1022200061F83918414501D216480144204601F0B1
:1022300043F970B1042060742674CCE74FF46161F7
:1022400048436978C1EB011100EB8100A978014492
:10225000E8E721686FF0020048602068016841F0FB
:10226000020101600848016841F40031016006483C
:102270000830016841F40031016084F8119026743F
:102280000020A9E780510100000401402DE9F04140
:102290000D4604003BD0C5B3207C01283AD04FF056
:1022A000010884F8108002206074E87872B301F0AD
:1022B00019F8E073687801F015F86073A87801F0F8
:1022C00011F8A073C2B2617BE07B01F0CAF8207301
:1022D0002870204601F0B5F84FF46161B0FBF1F1D0
:1022E000002518292DD91822B1FBF2F1A1EB01111B
:1022F00001EB4101C1EB011100EBC1163146204653
:1023000001F0EEF80427C8B90BE000E004E001207A
:10231000BDE8F0810220FBE7E07368786073A8787D
:10232000CFE7204601F086F8411C0AD0B04208D21F
:1023300006490144204601F0BFF810B167742574C6
:10234000E5E784F8118025740020E1E78051010061
:102350002DE9F0410D46040024D01DB3207C012856
:1023600023D04FF0010884F8108002206074287890
:10237000EAB100F0B7FF4FF4616100FB01F6687845
:1023800000F0B0FFC0EB001006EB8006A87800F06C
:10239000A9FF35182946204601F0A2F80026042797
:1023A00010BB0FE00120BDE8F0810220FBE74FF4F5
:1023B000616148436978C1EB011100EB8100A978A4
:1023C0004518E7E72068416821F005014160204693
:1023D00001F030F8411C0AD0A84208D20649014455
:1023E000204601F069F810B167742674DAE784F8C2
:1023F000118026740020D6E78051010070B50400DA
:102400000AD02068416821F008014160FFF75EF8BA
:1024100005464FF47A7608E0012070BDFFF756F8C4
:10242000401BB04201D9032070BD206840680007FE
:10243000F4D5002070BD000070B5174CA18820684D
:10244000FFF732F8E2790026144D40F6B831904299
:102450000BD12888401C80B22880884205D310A068
:1024600001F0D0FB01F07CF814E02888002812D09D
:10247000884210D2A1882068FFF716F8E1798842D7
:1024800009D00E480188491C89B20180B1F57A7FD4
:1024900001D306802E8070BDB846000818000020C9
:1024A000456E746572205374616E646279204D6F5D
:1024B0006465202121210D0A000000001A0000207F
:1024C00010B5401EB0F1807F01D3012010BD4FF048
:1024D000E02460610F21601701F0A4FB0020A061DF
:1024E00007202061002010BD10B5FFF7A5FF10BD2B
:1024F0007047704770B590F83C20012A19D001242C
:1025000000F83C4F0222427050F83C3C5A689D68EB
:1025100022F070060A684968324325F08005294395
:102520005A6050F83C2C91604470002101700846BC
:1025300070BD022070BD70472DE9F041044690F84F
:102540003C000D4601283BD0012684F83C60022067
:1025500084F83D009AB3042A44D02068082A53D056
:10256000D5E90027E968036A23F480530362D0F8B1
:102570001CC0036A2CF4407C4CEA07274FF6FF7C12
:1025800027F470470CEA01313943770323F40053F1
:1025900007EA02321A43C16102622068C16921F46C
:1025A0004061C1612068C169AA6841EA0221C16134
:1025B00084F83D60002084F83C00BDE8F08101E033
:1025C0000220FAE7D5E90012EB68206801F04CF927
:1025D0002068816921F00C01816120688169AA6805
:1025E00011430FE0D5E90012EB68206801F072F9A1
:1025F0002068816921F44061816120688169AA684D
:1026000041EA02218161D3E7D5E9002C2F7B016AE1
:1026100021F480710162C169036A21F0030141EA7A
:102620000C0121F0F00C39074FF400774CEA1161EE
:1026300023F4007307EA02221A43C1610262206890
:10264000C16921F00C01C1612068C169AA68114308
:10265000ADE710B5040003D094F83D0010B107E0D9
:10266000012010BD002084F83C00204600F00CF84A
:10267000022084F83D00211D206800F0EDFF0120BC
:1026800084F83D00002010BD00B585B00021009108
:102690000191029103910068124988421FD11248AA
:1026A000C16941F00401C161C16901F004010491F3
:1026B000816941F0080181618069694600F0080084
:1026C00004904FF4007000900848FEF7F1FD0022DE
:1026D00011461E20FFF750F81E20FFF73FF805B007
:1026E00000BD00000008004000100240000C014046
:1026F00070B50446006801694FF00005C9438907B9
:1027000015D4C168C943890711D4E91E01610120AC
:102710002077206880698007204602D0FFF70BFFF2
:1027200004E000F0C9F8204600F05EF92577206843
:102730000169C943490717D4C168C943490713D47C
:102740006FF004010161022020772068806910F495
:10275000407F204602D0FFF7EEFE04E000F0ACF828
:10276000204600F041F9257720680169C94309072F
:1027700016D4C168C943090712D46FF0080101617A
:10278000042020772068C0698007204602D0FFF728
:10279000D2FE04E000F090F8204600F025F92577FD
:1027A00020680169C943C90617D4C168C943C9066D
:1027B00013D46FF010010161082020772068C069F0
:1027C00010F4407F204602D0FFF7B5FE04E000F091
:1027D00073F8204600F008F9257720680169C9439D
:1027E000C90708D1C168C943C90704D1891E01615D
:1027F000204600F0FAF820680169C943090609D4A7
:10280000C168C943090605D46FF080010161204603
:10281000FFF76EFE20680169C943490609D4C16803
:10282000C943490605D46FF040010161204600F01C
:10283000DDF820680169C94389060BD4C168C94322
:10284000890607D46FF0200101612046BDE8704081
:10285000FFF74FBE70BD000000B585B000210091AC
:1028600001910291039100680F4988421AD10F48E3
:10287000816941F0080181618069694600F00800C2
:102880000490202000900220019003900848FEF759
:102890000FFD0848416821F4406141F0E06141F4D6
:1028A0000061416005B000BD00040040001002401E
:1028B000000C014000000140704770B5044690F8DC
:1028C0003C000D4601280DD0012684F83C60022012
:1028D00084F83D0042B1042A18D0082A2AD00C2AD4
:1028E0004DD139E0022070BD206800F0FBFE206869
:1028F000816941F0080181612068816921F004014A
:102900008161206881692A69114311E0206800F023
:1029100019FF2068816941F4006181612068816943
:1029200021F480618161206881692A6941EA02217C
:10293000816124E0206800F03BFF2068C16941F01C
:102940000801C1612068C16921F00401C1612068EA
:10295000C1692A69114311E0206800F05DFF206819
:10296000C16941F40061C1612068C16921F48061DD
:10297000C1612068C1692A6941EA0221C16184F804
:102980003D60002084F83C0070BD10B5040003D009
:1029900094F83D0010B107E0012010BD002084F83C
:1029A0003C00204600F00CF8022084F83D00211D78
:1029B000206800F051FE012084F83D00002010BD89
:1029C00008B500680649884208D10648C16941F047
:1029D0000201C161C06900F00200009008BD000062
:1029E000000400400010024070477047704700002C
:1029F00010B5044609A001F005F9204600F034F8AE
:102A000001460EA001F0FEF8204600F02BF801462A
:102A1000BDE810400EA001F0F5B800005761726EDD
:102A20006E696E673A2055415254205245435620F4
:102A30004552524F5221210D0A0000006875617203
:102A4000745F737461747573202025780D0A00001B
:102A500068756172745F6572726F72202025780DDF
:102A60000A000000C06B704710F8391F4078084317
:102A70007047000070B5026804461068D168536959
:102A800010F00F0F50D003F0010501F4907635439C
:102A90005DD0C20705D0CA0503D5E26B42F0010242
:102AA000E263420705D5DA0703D0E26B42F0020287
:102AB000E263820705D5DA0703D0E26B42F0040235
:102AC000E263020705D5DA0703D0E26B42F00802A1
:102AD000E263E26B002A33D0800604D5880602D573
:102AE000204600F033FF20684069E16BC0F380109E
:102AF000090700D428B3204600F00FFF2068416981
:102B000049061AD5416921F040014161606BA0B1CD
:102B10001B494163606BFEF769F9002810D0606BB8
:102B2000416BBDE870400847830610D58B060ED573
:102B30002046BDE8704000F009BF2046FFF758FF6F
:102B400070BD2046FFF754FF0020E06370BD030610
:102B500006D50B0604D52046BDE8704000F09EBFA8
:102B60004006F3D54806F1D5D168204621F0400152
:102B7000D160202184F8391000F0D4F870BD000035
:102B80000B39000870B5040004D094F83900002512
:102B900010B106E0012070BD84F83850204600F0E6
:102BA00023F8242084F839002068C16821F40051FA
:102BB000C160204600F016FF2068016921F49041B1
:102BC00001612068416921F02A0141612068C168E2
:102BD00041F40051C160E563202084F8390084F895
:102BE0003A00002070BD000030B585B0002400948C
:102BF0000194029403940068184988422CD1184823
:102C0000816941F480418161816901F480410491CD
:102C1000816941F0040181618069124D00F0040076
:102C200004904FF400700090022001900320039064
:102C300069462846FEF73CFB2815CDE900046946A5
:102C400028460294FEF734FB002201212520FEF7DE
:102C500093FD2520FEF782FD05B030BD0038014010
:102C6000001002400008014070472DE9F843044677
:102C700090F839001F4616460D46202850D1A5B1C0
:102C80009EB194F8380001284AD0012084F8380019
:102C90004FF00008C4F83C80212084F83900FEF78A
:102CA00015FCA6848146E68426E00120BDE8F88371
:102CB000E08C401EE084A0684B46B0F5805F4FF08A
:102CC00000024FF080012046009703D000F017FF6C
:102CD000E8B90DE000F013FFC8B928882168C0F3F7
:102CE00008004860206908B16D1C05E0AD1C03E0D8
:102CF000216815F8010B4860E08C0028D8D14B46BC
:102D0000002240212046009700F0F9FE08B1032080
:102D1000CCE7202084F8390084F838800020C5E70B
:102D20000220C3E77047FEE738B500200090144842
:102D3000FFF71BF9134C45F251052068A8420DD04E
:102D400003208DF800008DF8010018208DF8020096
:102D500020208DF80300684600F07AFA2068A84227
:102D60000CD1094800F05AFA002207490448FFF73D
:102D70008DFA08B1FDF76CFDFDF7A6FD38BD00002A
:102D80007801002010000020140000203EB500242F
:102D900011480094019402940E4984600160047308
:102DA0000475012505614FF460214460C161FDF7A0
:102DB0001DFE08B1FDF74CFD1020CDE90005694668
:102DC00002940548FDF790FD002801D0FDF740FD75
:102DD0003EBD000000240140280000203EB5002434
:102DE00011480094019402940E49846001600473B8
:102DF0000475012505614FF460214460C161FDF750
:102E0000F5FD08B1FDF724FD0620CDE90005694672
:102E100002940548FDF768FD002801D0FDF718FD74
:102E20003EBD0000003C0140580000201CB50024BD
:102E3000154900941348019408600846FDF795FF72
:102E400008B1FDF705FD0094002269460E48019483
:102E5000FDF764FF08B1FDF7FBFC24200090102271
:102E600069460948FDF75AFF08B1FDF7F1FC4FF438
:102E7000306210210448FDF735FF002801D0FDF72E
:102E8000E7FC1CBD0074004010010020114808B58B
:102E9000416941F002014161416901F00201009183
:102EA000416941F0010141614069002200F00100E7
:102EB000009011460B20FEF75FFC0B20FEF74EFC46
:102EC000002211463B20FEF757FCBDE808403B209E
:102ED000FEF744BC001002402DE9F04786B0002503
:102EE0003C480095019502950395816941F04001A8
:102EF0008161816901F040010491816941F0100113
:102F00008161816901F010010491816941F08001C2
:102F10008161816901F080010491816941F00401BE
:102F20008161816901F004010491816941F0080126
:102F300081618069DFF8A09000F008000490012210
:102F400020214846FEF7BCFADFF890A04FF48078C5
:102F5000002241465046FEF7B3FA0C20CDE90005A9
:102F60000124694602944846FEF7A2F91C4F10203E
:102F7000CDE90007694602944846FEF799F92020FA
:102F800002268DE8710069464846FEF791F9CDE9C1
:102F90000047694613480296FEF78AF901AACDF860
:102FA000008082E8700069465046FEF781F90022F1
:102FB00011460620FEF7E0FB0620FEF7CFFB0022BD
:102FC00011460A20FEF7D8FB0A20FEF7C7FB06B021
:102FD000BDE8F0870010024000180140000C0140DD
:102FE00000001110000801400D4810B50B490160A8
:102FF0000C49416000214FF480428160C0E9031216
:1030000041618161C1610162FEF766FA002803D067
:10301000BDE81040FDF71CBC10BD0000005400408E
:1030200024010020A086010010B586B0002431489C
:103030000394029400942E4901940160611E416042
:103040004FF480718160FFF739F808B1FDF700FC9B
:103050002948C16941F00061C161C16901F00061A5
:103060000491C16941F08051C161C069012100F042
:10307000805004901F48FEF73FFF20490860A0F5EC
:10308000A041513932D009208DF80C0047208DF82D
:103090000D008DF80E40012203A91648FFF758F9DC
:1030A00008B1FDF7D5FB03208DF808008DF8090065
:1030B00018208DF80A0020208DF80B00012202A9AB
:1030C0000C48FFF7E3F808B1FDF7C2FB8DF80040AC
:1030D0008DF801408DF802400122694605480194AF
:1030E000FFF760F8002801D0FDF7B2FB06B010BD75
:1030F000002800407801002000100240100000204D
:1031000010B58AB0002407941C2168460894FDF786
:1031100042F818481649016040F2CF21C0E9011475
:103120004FF4FA71C0E9031480218161FFF72DFC8F
:1031300008B1FDF78DFB079407A90E480894FFF727
:10314000D9F908B1FDF784FB6020CDE90004022025
:1031500002900422694604940648FFF7AEFB08B1CA
:10316000FDF776FB0348FFF777FB0AB010BD0000C0
:10317000000400408C01002010B586B000241848DF
:1031800005940494009401940294144903940160FA
:103190004721C0E9011442F21071C0E903148461AF
:1031A000FFF757FA08B1FDF753FB049404A90C4844
:1031B0000594FFF79FF908B1FDF74AFB0120CDE91F
:1031C000004002940C22694605480394FFF7B4F9C5
:1031D000002801D0FDF73CFB06B010BD0008004000
:1031E000CC0100200C4810B50A4901604FF4E131D0
:1031F0004160002181600C22C160C0E9041281613C
:10320000C161FFF7BFFC002803D0BDE81040FDF707
:103210001FBB10BD003801400C02002010B5044651
:1032200002210A48FEF768FEE07003210748FEF716
:1032300063FE607004210548FEF75EFEA070052164
:103240000248FEF759FE207010BD000078010020F2
:1032500010B5044645F2500201210C48FEF754FE19
:10326000E27802210948FEF74FFE62780321074801
:10327000FEF74AFEA27804210448FEF745FE2278B4
:10328000BDE8104005210148FEF73EBE7801002050
:10329000FEE700000D4910B5012008701422CA6035
:1032A0000B4840F6B832C1E901024FF48032CA61DE
:1032B000084900F040FBFFF737FD2823BDE8104028
:1032C000012205490548FDF7C5BA0000780E002027
:1032D0000C020020740200204C0200202800002074
:1032E00070477047010901EB810100F00F0000EB0E
:1032F0004100C0B27047002102E00A38C0B2491C48
:103300000A28FAD2090740EA116070472DE9F04116
:1033100004460025C07B627BA37B42E0012A16D0D5
:10332000032A14D0052A12D0072A10D0082A0ED05A
:103330000A2A0CD00C2A0AD0042A10D0062A0ED051
:10334000092A0CD00B2A0AD0022A0DD028E01F2B04
:103350000CD30C2A05D101221346401C20E01E2B61
:1033600004D30123521C1BE01C2B02D203F10103E6
:1033700016E011D183B29E0710D16426B3FBF6F795
:1033800006FB173636B94FF4C876B3FBF6F706FBE3
:1033900017331BB91D2303E01D2B01D10322012389
:1033A0006D1C8D42BAD3D1B2E0736173DAB2A273ED
:1033B00000F057F82073BDE8F08170B50446FEF7C1
:1033C00085F805464FF47A7606E0FEF77FF8401B55
:1033D000B04201D9032070BD206840688006F4D552
:1033E0002068416841F010014160002070BD00007C
:1033F00070B504460068416821F010014160FEF795
:1034000065F805464FF47A7607E000BFFEF75EF8F0
:10341000401BB04201D9032070BD2068406880067F
:10342000F4D5002070BD00000148FEF780BD00000B
:10343000780100200168086A496A89B241EA0040BF
:103440007047006881698AB2C1698BB2816989B2AB
:103450008A4203D0C06961F31F40704743EA0240CB
:103460007047F0B56424C1EBC1030927A500072606
:1034700003EB01130329B3FBF7F100F5FA601144E4
:1034800001440AD2401EB0FBF4F201EB9001B0FB04
:10349000F5F0891A0844001D08E0B0FBF4F201EBD6
:1034A0009001B0FBF5F0891A0844801CB0FBF6F1DE
:1034B00006FB1100C0B2F0BD70B50D4606460024F3
:1034C000FFF77BFF48B93168280C08623168A8B261
:1034D00048623046FFF78CFF00B10124204670BDE2
:1034E00070B50D4606460024FFF767FF48B93168FE
:1034F000280C88613168A8B2C8613046FFF778FFB0
:1035000000B10124204670BD7047000038B50E4858
:10351000C16941F08051C161C06900F080500090E4
:10352000FEF76AF94FF480742046FEF757F9074911
:10353000086840F0040008602046FEF763F9BDE823
:103540003840FEF76DB900000010024000700040E6
:1035500010B5FEF7A9F8BDE81040FEF7C5BF0000A2
:1035600010B5FDF775FE0A48816921F040018161BF
:10357000816921F010018161816921F0040181617B
:10358000816921F008018161BDE81040FFF7BEBFED
:103590000010024030B595B028216846FCF7FBFDCD
:1035A00014210AA8FCF7F7FD18210FA8FCF7F3FD7A
:1035B0000121052000240090CDE902414FF4803024
:1035C000019002250491CDE907504FF4E0100990D5
:1035D0006846FEF701FB0F20CDE90A056802CDE938
:1035E0000C4002210AA80E94FEF70AFA03200F905D
:1035F000E8011090C00111900FA8FEF78BF915B0EB
:1036000030BD00000D48016841F0010101604168D2
:103610000B4A1140416001680A4A1140016001688B
:1036200021F480210160416821F4FE0141604FF4E2
:103630001F0181600449C003086070470010024008
:103640000000FFF8FFFFF6FE08ED00E00148FFF77D
:103650004FB80000CC010020F0B502681C4B1D4D96
:103660001D4E1E4F1E4C4FF0804C984209D0A04278
:1036700007D0604505D0A84203D0B04201D0B8427F
:1036800004D122F0700E4A6842EA0E02984209D034
:10369000A04207D0604505D0A84203D0B04201D077
:1036A000B84203D122F44075CA682A434D6922F01A
:1036B00080022A4302608A68C2620A688262984273
:1036C00001D0A04201D10969016301214161F0BD2E
:1036D000002C01400004004000080040000C0040A5
:1036E00000340140F0B5026A22F001020262036A6E
:1036F00042688469124E24F073050C682C4323F051
:1037000002058B682B430D4DA84201D0B04205D174
:1037100023F00807CB683B4323F00403A84201D001
:10372000B04205D14D6922F4407215438A692A439B
:1037300042608461496841630362F0BD002C01402E
:1037400000340140F0B5026A22F010020262026AFF
:10375000436884690D6824F4E64444EA05248D68CE
:1037600022F0200242EA05120F4D104EA84201D06D
:10377000B04206D1CF6822F0800242EA071222F05E
:103780004002A84201D0B04207D14D6923F4406302
:1037900043EA85038D6943EA850343608461496890
:1037A00081630262F0BD0000002C01400034014042
:1037B000F0B5026A22F480720262026A4368C46948
:1037C00022F4007224F073050C68124E2C438D68AD
:1037D00042EA05220E4DA84201D0B04206D1CF6880
:1037E00022F4006242EA072222F48062A84201D059
:1037F000B04207D14D6923F4405343EA05138D6964
:1038000043EA05134360C4614968C1630262F0BDC5
:10381000002C01400034014030B5026A22F480528D
:103820000262046A4268C3690D6823F4E64343EA0E
:1038300005238D6824F4005444EA0534084DA84259
:1038400002D0084DA84204D14D6922F4804242EAD8
:1038500085124260C36149680164046230BD0000A2
:10386000002C01400034014070B5046A24F00104CA
:1038700004628469056A124EB0420ED0114EB04205
:103880000BD0B0F1804F08D00F4EB04205D00F4E94
:10389000B04202D00E4EB04203D124F003041443D0
:1038A00001E044F001041A0724F0F00444EA126233
:1038B00025F00A0301F00A0119438261016270BD1B
:1038C000002C01400034014000040040000800408A
:1038D000000C004030B5046A24F0100404628469CE
:1038E000056A24F4407444EA022222F470444FF63C
:1038F000FF7202EA03322243A02425F0A00304EA67
:10390000011119438261016230BD10B5406A002186
:10391000C185C184FFF76CF810BD0168CA6822F444
:103920009072CA6001684A6922F001024A6120214E
:1039300080F83A1070470168CA6842F01002CA6005
:103940000068C16841F02001C160704710B590F86F
:103950003A10222901D0022010BD8168B1F5805FA4
:1039600011D00169002901681FD0496801F07F0367
:10397000816A4A1C82620B70C18D491E0904090CC0
:10398000C18518D02BE00269816A002A026852685A
:1039900005D0D2B20A80816A491C8162ECE7C2F389
:1039A00008020A80816A891CF7E74A68816A4B1C11
:1039B00083620A70E0E70168CA6822F02002CA60E8
:1039C0000168CA6822F48072CA6001684A6922F0FC
:1039D00001024A61202180F83A10FFF745F90020E2
:1039E00010BD00002DE9F041044600680169E2685D
:1039F00021F44051114301612169A06808436169C4
:103A000008432168CA6841F20C639A430243CA60C2
:103A100020684169A26921F44071114341611E4946
:103A2000206864253226884202D1FEF78FF801E033
:103A3000FEF77CF800EBC00101EB001160686FF04D
:103A400018078000B1FBF0F2B2FBF5F2B1FBF0F326
:103A50007A4303EB8202B1FBF0F306EB0212B2FBF6
:103A6000F5F2B3FBF5F302F0F00202EB0312B1FB47
:103A7000F0F3B1FBF0F0B0FBF5F0784303EB80001E
:103A800006EB0010B0FBF5F0216800F00F001044C9
:103A90008860BDE8F08100000038014090F83910DE
:103AA000212901D0022070478168B1F5805F016A49
:103AB0000BD04A1C0262026809785160C18C491E11
:103AC0000904090CC1840ED017E009880268C1F30B
:103AD0000801516001690029016A02D0491C016294
:103AE000ECE7891CFBE70168CA6822F08002CA6023
:103AF0000068C16841F04001C160002070472DE9B5
:103B0000F041984617460E460446069D1DE0681C87
:103B10001BD02DB1FDF7DAFCA0EB0800A84214D9A8
:103B20002068C16821F4D071C1602068416921F02A
:103B300001014161202084F8390084F83A00002016
:103B400084F838000320BDE8F0812068006836EA78
:103B5000000004D00020B842D9D00020F3E70120B3
:103B6000F9E7000010B5044800F008F8BDE810407F
:103B70000148FEF77FBF00000C020020F8B50546A3
:103B800000681A49884200D1194C0268D243920653
:103B900009D443686088261D421C628083552A68C8
:103BA0006FF02000106028680268D243D2061BD450
:103BB000884202D12088401C20800E492868884213
:103BC0000ED1002606E0A01901790BA000F01AF82A
:103BD000761CB6B26088B042F5D808A000F012F8A2
:103BE0002868016840680090F8BD00000038014076
:103BF0007402002000500040256300000D0A000000
:103C0000FEE700000FB4054B10B503A9044A029863
:103C100000F0EAF810BC5DF814FB0000194500083C
:103C20001C0000200907090E002804DB00F1E02039
:103C300080F80014704700F00F0000F1E02080F8D9
:103C4000141D704702E008C8121F08C1002AFAD1EB
:103C500070477047002001E001C1121F002AFBD10C
:103C6000704700002DE9FF5F82B00021DDE90430DC
:103C7000020DDDF840B0034318D044F61050A2F214
:103C8000FF3242431514119801281FD0A5EB0B00F9
:103C9000401C5FEA000A4FF000064E4FDFF83891F3
:103CA000B046504615D5CAF1000413E0119801241E
:103CB0004AA3012801D16FEA0B010298119AC0E9C9
:103CC0000031C0E9024206B0BDE8F09FCBF1000030
:103CD000DFE704460021404A491842EB0450CDE991
:103CE000001012E0E00707D032463B464046494606
:103CF000FCF703FB8046894632463B461046194690
:103D0000FCF7FBFA06460F466410002CEAD1DDE909
:103D10000401DDE90023BAF1000F06DAFCF7EDFA41
:103D200042464B46FCF7E9FA05E0FCF758FB4246F1
:103D30004B46FCF754FB04460E460022284BFCF78A
:103D40009BFC03D84FF0FF30014607E00022254BD3
:103D500020463146FCF72AFAFCF775FC102409E0EE
:103D6000002C0ADB0A220023FCF7BEFB039B303247
:103D70001A55641E50EA0102F2D1641C039AC4F180
:103D800011031444119A012A03D0012208430DD1D2
:103D90000AE0084304D000204FF0110B119072E7A5
:103DA000A3EB0B056D1E0DE05B4504DD4FF000023B
:103DB00005F1010504E003DA4FF00002A5F1010569
:103DC000002AECD002981199C0E90231C0E90045FF
:103DD00079E70000000014400000F03F30000000D0
:103DE0000000F0430000E03F2DE9FF4F95B09B46F7
:103DF0008946064600250FE2252877D1002427466C
:103E0000F84A0121059400E0044316F8013F203BE5
:103E100001FA03F01042F7D130782A2811D06FF060
:103E20002F033078A0F13002092A16D8059A44F001
:103E3000020402EB820203EB42021044761C05905E
:103E4000EFE759F8042B0592002A03DA504244F4B4
:103E50000054059044F00204761C30782E2816D1C8
:103E600016F8010F44F004042A280DD06FF02F0239
:103E70003078A0F13003092B09D807EB870302EB58
:103E80004303C718761CF3E759F8047B761C307897
:103E90006C280FD006DC4C2817D068280DD06A2873
:103EA00014D104E0742810D07A280FD10DE044F426
:103EB00000140AE044F4801401E044F440147278E1
:103EC000824202D104F58014761C761C3078662874
:103ED0000BD013DC582877D009DC002875D0452892
:103EE000F6D04628F4D047281AD19DE118E063287F
:103EF00035D0642879D0652812D195E1702873D027
:103F000008DC6728F1D069286FD06E280DD06F28A3
:103F100006D1B5E073282CD0752875D0782874D0D8
:103F20005A46179990476D1C75E1C4F30250022858
:103F300009D003280DD0D9F8001004280DD00D6049
:103F400009F1040967E1D9F80010EA17C1E9005244
:103F5000F6E7D9F800100D80F2E70D70F0E719F8D8
:103F6000041B8DF8001000208DF80100EA460120A6
:103F700003E059F804AB4FF0FF3061074FF0000148
:103F800002D40DE008F101018846B9420FDA8045FC
:103F9000F8DB1AF808100029F4D108E008F1010153
:103FA00088468142FADB1AF808100029F6D10598F4
:103FB0005B46A0EB080721463846179A00F094FAB2
:103FC000284400EB080507E04DE029E10DE01AF870
:103FD000010B5A4617999047B8F10108F7D25B4692
:103FE00021463846179A13E142E00A220092C4F3B0
:103FF00002524FF0000A022A08D059F804CB032AD3
:104000004FEAEC710AD00DE029E02AE009F107013E
:1040100021F00702F2E802C1914609E00FFA8CFC98
:104020004FEAEC71042A03D14FFA8CFC4FEAEC7191
:10403000002907DA0A460021DCF1000C61EB0201DD
:104040002D2202E0220504D52B228DF80420012226
:1040500003E0E20701D02022F7E7904659E00A2169
:1040600002E010220DE010214FF0000A00910BE059
:1040700010224FF0000A44F004040827009203E0E5
:1040800008224FF0000A0092C4F30252022A05D01F
:1040900059F804CB0021032A08D009E009F10701EF
:1040A00021F00702F2E802C1914605E01FFA8CFCFC
:1040B000042A01D10CF0FF0C4FF00008220728D58C
:1040C000702806D0009B83F0100353EA0A0305D042
:1040D0000EE040228DF80420012208E05CEA010293
:1040E00006D030228DF804208DF80500022290467B
:1040F000009B83F0080353EA0A030AD15CEA010239
:1041000001D1620705D530228DF804204FF0010857
:104110007F1E582804D034A003900EA802900DE012
:1041200036A0F9E753466046009AFCF7DDF984466D
:104130000398825C0298401E029002705CEA0100C3
:10414000F0D1029806A9081A00F1200A600702D5EA
:1041500024F4803400E00127574502DDA7EB0A0074
:1041600000E0002000EB0A01009005984144401A4D
:104170000590E00306D45B462146179A059800F0A7
:10418000B3F90544002706E001A85A46C05D179917
:1041900090476D1C7F1C4745F6DBE0030CD55B4662
:1041A0002146179A059800F09FF9054404E0302055
:1041B0005A46179990476D1C0099481E0090002997
:1041C000F5DC08E0029802995A460078491C0291F1
:1041D000179990476D1CBAF10001AAF1010AF1DCB0
:1041E00065E10000092801003031323334353637BB
:1041F0003839616263646566000000003031323333
:1042000034353637383941424344454600000000D2
:1042100000F058F90544761C307800287FF4ECADA6
:1042200019B02846BDE8F08F620700D4062709F1CF
:10423000070222F0070CFCE80223E14603F00048E5
:104240005FEA080C02D00FF2702C0DE05FEA045C0C
:1042500002D50FF2682C07E05FEAC47C02D00FF2AF
:10426000602C01E0AFF2700C4FF0FF3823F00043F8
:10427000CDF850C065280CD006DC452809D046286A
:104280001DD047283DD13DE0662818D067287ED153
:1042900038E00021112F01DB112000E0781CCDE96E
:1042A000000106A90EA8FFF7DDFCDDE90F010E9A5B
:1042B00003910021009207F1010A04914DE04FF0B3
:1042C00000400097CDE9011006A90EA8FFF7CAFC2F
:1042D000DDE90F0203920E9B11990022DDF80CA07C
:1042E0000093049211B9791C00EB010AB7EB0A00A4
:1042F00004D4C0F1FF3007F1010A0490AAEB0700D3
:10430000019044E0012F00DA01270021112F01DD87
:10431000112000E03846CDE9000106A90EA8FFF7FC
:10432000A1FCDDE90F010E9A039100210491009296
:10433000BA4621070CD40399514500DA8A46BAF1EE
:10434000010F05DD009AAAF10101515C302908D066
:10435000B84202DA10F1040F06DA0121CDE90110AA
:1043600015E0AAF10101E9E7002805DC0499014400
:104370000491AAEB000102E0411C514500DD8A4690
:104380000499401A401C01904FF000400290200711
:1043900004D40198504501DBCDF8048000208DF84D
:1043A0004F0002980DF14F07B0F1004F25D02B20A0
:1043B0000E9002984FF0020800280CDA404202905A
:1043C0002D200E9007E00A210298FCF777F8303193
:1043D000029007F8011DB8F10001A8F10108F2DC14
:1043E00002980028EFD1791E0E980870307800F0FE
:1043F000200040F0450007F8020D12A8C01B00F194
:1044000007081498007800B1012000EB0A01019818
:1044100001EBE07105984144401A401E0590E0030D
:1044200006D45B462146179A059800F05DF80544CE
:104430001498007818B15A46179990476D1CE003FC
:1044400024D55B462146179A059800F04DF805449F
:104450001CE00498002807DBDDE90301884203DD46
:104460000098405C179901E0179930205A46904710
:10447000049805F10105401C04900198401E01902C
:1044800004D12E205A46179990476D1CBAF10001AD
:10449000AAF1010ADDDC05E017F8010B5A4617996D
:1044A00090476D1CB8F10001A8F10108F4DC5B46EF
:1044B0002146179A0598ABE62D0000002B0000005E
:1044C000200000002DE9F041044600251E46174655
:1044D000880404D405E039462020B0476D1C641ED2
:1044E000F9D52846BDE8F0812DE9F04104460025C4
:1044F0001E469046C80301D5302700E020278804D7
:1045000004D505E041463846B0476D1C641EF9D518
:104510002846BDE8F081000013B505484FF6FF734B
:10452000012240686946FEF7A0FB00981CBD000010
:10453000780E002010B5002821D0114B0022001F5A
:10454000196803E0814203D80A4649680029F9D175
:1045500052B11368841A9C4204D100681844106058
:10456000104602E0506000E0186039B102680B1A92
:10457000934203D10B681A4402604968416010BD40
:1045800020000020FDF798F8FFF704F8FEF7A4FCE0
:10459000FEF728FEFEF748FDFEF7F8FBFEF71EFCCF
:1045A000FEF744FCFEF772FCFEF71EFDFEF7A8FDC9
:1045B000FEF7E2FDFEF76EFE13A118A0FFF722FB47
:1045C000184C2088B0B1002506E06019017916A0CA
:1045D000FFF718FB6D1CADB26088A842F5D813A098
:1045E000FFF710FB20880021401E20806180201DE5
:1045F000FBF7D1FD20210E48FCF75BFF4FF47A70EA
:10460000FCF736FEDDE700004E6577204461792037
:104610002D3E204E6577204C6966650025730D0A96
:104620000000000074020020256300000D0A000055
:1046300000180140F0B50B30154D20F007010024A3
:10464000144A0FE003688B420BD38B4205D95E1AE4
:1046500043184768C3E9006700E04368136002C07D
:1046600004E0021D10680028ECD12046002802D189
:10467000286808B10020F0BD064A07481060074AC4
:10468000121A22F00702C0E9002401202860D7E7AF
:1046900024000020200000209C0E00209810002004
:1046A00000000000000000000102030406070809E2
:1046B0000000000001020304001801401000000087
:1046C000E04600080000002028000000443C0008EC
:1046D000084700082800002070140000543C00081F
:1046E0000100000010000000000000000024F400A1
:1046F00000000000000000000000000000000000BA
:084700000000000000000000B1
:0400000508000131BD
:00000001FF
